:030000000200ED0E
:0C00ED00787FE4F6D8FD75812002000346
:1000DA00758901758CAC758AF0C28DD28C308DFD14
:0300EA00C28C22A3
:0700C400D2A21200CBC2A280
:0E00CB00E4FFFE0FBF00010EBE0AF8BF28F5CD
:0100D9002204
:10009D00E4FDFCD2A31200C40DBD00010CBC01F5A2
:1000AD00BDAEF2C2A3E4FCFD1200C40DBD00010CF7
:0600BD00BC01F5BDAEF22E
:0100C300221A
:0A00F900D2A01200CBC2A00200CB7F
:0A010300D2A01200DAC2A00200DA56
:10000300900064C200758921758DE8758BE8D28EE6
:10001300759850D2993098FDAF997A00AB07C29882
:10002300EB7041D2A1F58375826420A706E5824572
:1000330083600BE5821582700215831200F930A7E5
:1000430004D20080E520A7E2300005C2009000172B
:100053002000D7E582458370D112009D90000830BF
:1000630098C880B1EB64014A700AB2A11200F9305A
:1000730098FA80A1EB64024A7004C2A08097EB64F3
:10008300034A70081200F93098FA8089EB64044A35
:0A0093007083C2A012009D02001845
:00000001FF
